:020000040800F2
:1000000088060020CD010008D5010008D7010008AE
:10001000D9010008DB010008DD0100080000000034
:10002000000000000000000000000000DF010008E8
:10003000E101000800000000E3010008E5010008FC
:10004000E7010008E7010008E7010008E7010008F0
:10005000E7010008E7010008E7010008E7010008E0
:10006000E7010008E7010008E7010008E7010008D0
:10007000E7010008E7010008E7010008E7010008C0
:10008000E7010008E7010008E7010008E7010008B0
:10009000E7010008E7010008E7010008E7010008A0
:1000A000E7010008E7010008E7010008E701000890
:1000B000E7010008E7010008E7010008E701000880
:1000C000E7010008E7010008E7010008E701000870
:1000D000E70100083D060008E7010008E701000805
:1000E000E7010008E7010008E7010008E701000850
:1000F000E7010008E7010008E7010008E701000840
:10010000E7010008E7010008E7010008E70100082F
:10011000E7010008E7010008E7010008E70100081F
:10012000E7010008E7010008E7010008E70100080F
:1001300000F002F800F03AF80AA090E8000C8244BF
:100140008344AAF10107DA4501D100F02FF8AFF29C
:10015000090EBAE80F0013F0010F18BFFB1A43F0A5
:1001600001031847E407000004080000103A24BF08
:1001700078C878C1FAD8520724BF30C830C144BF0C
:1001800004680C607047000000230024002500264E
:10019000103A28BF78C1FBD8520728BF30C148BFEA
:1001A0000B6070471FB51FBD10B510BD00F031F8D2
:1001B0001146FFF7F7FF00F08BFB00F04FF803B498
:1001C000FFF7F2FF03BC00F057F800000948804732
:1001D00009480047FEE7FEE7FEE7FEE7FEE7FEE729
:1001E000FEE7FEE7FEE7FEE704480549054A064B41
:1001F00070470000DD05000831010008880000207C
:10020000880600208802002088020020704770477E
:100210007047754600F02CF8AE4605006946534617
:1002200020F00700854618B020B5FFF7DDFFBDE8D8
:1002300020404FF000064FF000074FF000084FF04D
:10024000000B21F00701AC46ACE8C009ACE8C009DE
:10025000ACE8C009ACE8C0098D46704710B504464B
:10026000AFF300802046BDE81040FFF7A8BF0000B4
:10027000004870472800002001491820ABBEFEE767
:1002800026000200704700001248806940F04800D4
:10029000104988611048006820F470000E49086019
:1002A0000E48006820F470000C4908600A48006895
:1002B00040F44010084908600848006840F44010C5
:1002C00006490860202004491031086003491031B4
:1002D0000860704700100240000C01400018014007
:1002E00010B1012814D109E019B120220C4B1A6079
:1002F00003E020220A4B1B1D1A600FE019B12022D7
:10030000084B1A6003E02022064B1B1D1A6005E013
:100310002022034B1A60034B1A6000BF00BF7047D6
:10032000100C01401018014070B5002100230F226D
:10033000C47804B3154C246804F4E064C4F5E064A4
:10034000210AC1F10403CA40447804FA03F1847815
:100350001440214309010E4C0678A155047804F09D
:100360001F050124AC4005786D11AD0005F1E025B5
:10037000C5F8004109E0047804F01F050124AC40F1
:10038000044D0678761145F8264070BD0CED00E06E
:1003900000E400E080E100E002490143024A11600C
:1003A000704700000000FA050CED00E030B50021B8
:1003B0000022002400232D4D6D6805F00C0121B1B1
:1003C000042905D0082923D105E0294D056022E044
:1003D000274D05601FE0254D6D6805F47012234D13
:1003E0006D6805F48034022505EB92421CB9214D5D
:1003F000554305600BE01D4D6D6805F400351DB1DA
:100400001C4D5543056002E0194D5543056002E05F
:10041000174D056000BF00BF144D6D6805F0F00179
:100420000909154D6B5C0568DD4045600F4D6D6831
:1004300005F4E061090A104D6B5C4568DD4085609C
:100440000A4D6D6805F46051C90A0B4D6B5C456837
:10045000DD40C560054D6D6805F44041890B074DD1
:100460006B5CC568B5FBF3F5056130BD001002405B
:1004700000127A0000093D00140000202400002032
:100480001149096821F480310F4A11601146096849
:1004900021F480211160B0F5803F03D0B0F5802FAA
:1004A0000ED106E00849096841F48031064A11601E
:1004B00007E00549096841F4A021034A116000E002
:1004C00000BF00BF704700000010024010B500F0F0
:1004D00001F810BD0CB50020019000903348006871
:1004E00040F480303149086000BF3048006800F4B3
:1004F000003000900198401C0190009818B90198B4
:10050000B0F5A06FF1D12948006800F4003010B1B7
:100510000120009001E0002000900098012843D1C4
:100520002348006840F01000214908600846006830
:1005300020F0030008600846006840F002000860F0
:100540001A484068194948600846406848600846AB
:10055000406840F4806048600846406820F47C10A1
:1005600048600846406840F4E81048600846006863
:1005700040F08070086000BF0C48006800F0007018
:100580000028F9D00948406820F003000749486076
:100590000846406840F00200486000BF03484068D9
:1005A00000F00C000828F9D10CBD0000001002403A
:1005B00000200240042808D14FF0E021096941F0F1
:1005C00004014FF0E022116107E04FF0E0210969DA
:1005D00021F004014FF0E0221161704710B513487B
:1005E000006840F001001149086008464068104961
:1005F00008400E494860084600680E4908400B490B
:1006000008600846006820F48020086008464068BA
:1006100020F4FE0048604FF41F008860FFF756FF8B
:100620004FF000600449086010BD00000010024057
:100630000000FFF8FFFFF6FE08ED00E010B540F205
:100640002551064800F019F838B1044800F0ACF81C
:10065000C4B22146014800F0ACF810BD003801409A
:1006600002460020B1F5007F00D100BF13880B4087
:100670000BB1012000E00020704770B50246002455
:1006800000230025002040F66A16B14200D100BFC9
:10069000C1F3421501F01F03012606FA03F3012DF1
:1006A00002D19689334006E0022D02D1168A3340EA
:1006B00001E0968A33400C12012606FA04F41688EB
:1006C000344013B10CB1012000E0002070BD0000E7
:1006D0002DE9F04786B005460E460024A24600BF2D
:1006E000A1460027B08900B100BF2F462C8A4CF6E6
:1006F000FF700440F08804432C82AC894EF6F3105E
:100700000440B08831890843718908430443AC81AF
:10071000AC8A4FF6FF400440B0890443AC8201A884
:10072000FFF744FE1F48874202D1DDF810A001E028
:10073000DDF80CA0A88900F4004040B10AEBCA0023
:1007400000EB0A1031684900B0FBF1F807E00AEB52
:10075000CA0000EB0A1031688900B0FBF1F8642090
:10076000B8FBF0F004012009642101FB1089A8897D
:1007700000F4004040B1322000EBC900B0FBF1F0C2
:1007800000F00700044308E0322000EB0910642168
:10079000B0FBF1F000F00F0004432C8106B0BDE87F
:1007A000F08700000038014001468888C0F3080047
:1007B0007047C1F3080282807047000010B586B010
:1007C00004461D48806944F2040108431A498861BF
:1007D0001A48006840F496601849086002940020A6
:1007E000ADF814000C20ADF812000020ADF8100098
:1007F000ADF80E00ADF80C0002A91148FFF768FF34
:100800004FF4A060FFF7C8FD25208DF804000120FB
:100810008DF805008DF806008DF8070001A8FFF798
:1008200083FD07480C30008842F220010843044948
:100830000C31088006B010BD0010024004080140D1
:10084000003801402DE9F04106460C4600250027FE
:1008500000BF00BF0B48008800F080000028F9D0DE
:10086000615D3046FFF7A5FF6D1C605DB842F0D1B9
:1008700000BF40213046FFF7F3FE0028F9D0BDE865
:10088000F0810000003801400146104A1268D20889
:100890004FF47A73B2FBF3F24A434FF0E0235A610C
:1008A00000229A6101221A6100BF4FF0E022106914
:1008B00000F001021AB100F48032002AF5D00022C3
:1008C0004FF0E0231A619A61704700000000002099
:1008D00016A44FF48030FFF7D3FD6FF00400FFF74C
:1008E00069FEFFF7D1FC4FF4E130FFF767FF2146C7
:1008F0001448FFF7A7FF17E000210846FFF7F0FCB8
:100900004FF4FA70FFF7C0FF01210020FFF7E8FC69
:1009100000210120FFF7E4FC4FF4FA70FFF7B4FF69
:1009200001210846FFF7DCFCE6E7000077656C6311
:100930006F6D6520746F206D79206368616E6E65E0
:100940006C21000000380140680900080000002008
:10095000280000006C010008900900082800002011
:10096000600600008801000800A24A0400000000A0
:10097000000000000102030406070809000000004F
:100980000102030401020304060708090204060821
:0400000508000131BD
:00000001FF
